:020000041000EA
:10000000D3DEFFFF420121100302000000020010B6
:0C001000FF03000000000000793512AB77
:1001000000000000000000000000000000000000EF
:1001100000000000000000000000000000000000DF
:1001200000000000000000000000000000000000CF
:1001300000000000000000000000000000000000BF
:1001400000000000000000000000000000000000AF
:10015000000000000000000000000000000000009F
:10016000000000000000000000000000000000008F
:10017000000000000000000000000000000000007F
:10018000000000000000000000000000000000006F
:10019000000000000000000000000000000000005F
:1001A000000000000000000000000000000000004F
:1001B000000000000000000000000000000000003F
:1001C000000000000000000000000000000000002F
:1001D000000000000000000000000000000000001F
:1001E000000000000000000000000000000000000F
:1001F00000000000000000000000000000000000FF
:10020000800F0020450E00109F2C0010310E0010B2
:10021000310E0010310E0010310E0010310E0010A2
:10022000000000000000000000000000F50E0010BB
:10023000310E001000000000A10E0010C1170010C8
:1002400021100010211000102110001021100010AA
:10025000211000102110001021100010211000109A
:10026000211000102110001021100010211000108A
:10027000211000102110001021100010211000107A
:10028000211000102110001021100010211000106A
:10029000211000102110001021100010211000105A
:1002A000211000102110001021100010211000104A
:1002B000211000102110001021100010211000103A
:1002C000211000102110001021100010211000102A
:1002D000211000102110001021100010211000101A
:1002E000211000102110001021100010211000100A
:1002F00021100010211000102110001021100010FA
:1003000021100010211000102110001021100010E9
:1003100080F0004002E000BF81F0004142001FBFBA
:100320005FEA410392EA030F7FEA226C7FEA236CC3
:100330006AD04FEA1262D2EB1363C1BFD2184140B8
:1003400048404140B8BF5B42192B88BF704710F04E
:10035000004F40F4000020F07F4018BF404211F0F1
:10036000004F41F4000121F07F4118BF494292EA59
:10037000030F3FD0A2F1010241FA03FC10EB0C0085
:10038000C3F1200301FA03F100F0004302D5494212
:1003900060EB4000B0F5000F13D3B0F1807F06D3BF
:1003A00040084FEA310102F10102FE2A51D2B1F1B7
:1003B000004F40EBC25008BF20F0010040EA0300AC
:1003C0007047490040EB0000013A28BFB0F5000F2C
:1003D000EDD2B0FA80FCACF1080CB2EB0C0200FAE2
:1003E0000CF0AABF00EBC25052421843BCBFD04031
:1003F0001843704792F0000F81F4000106BF80F4AB
:1004000000000132013BB5E74FEA41037FEA226C6D
:1004100018BF7FEA236C21D092EA030F04D092F038
:10042000000F08BF0846704790EA010F1CBF00206C
:10043000704712F07F4F04D1400028BF40F00040C9
:10044000704712F100723CBF00F50000704700F0E9
:10045000004343F0FE4040F4000070477FEA226210
:1004600016BF08467FEA23630146420206BF5FEAE1
:10047000412390EA010F40F4800070474FF00003E1
:1004800004E000BF10F0004348BF40425FEA000CA8
:1004900008BF704743F0964301464FF000001CE050
:1004A00050EA010208BF70474FF000030AE000BFA6
:1004B00050EA010208BF704711F0004302D54042E4
:1004C00061EB41015FEA010C02BF84460146002056
:1004D00043F0B64308BFA3F18053A3F50003BCFA71
:1004E0008CF2083AA3EBC25310DB01FA02FC63441E
:1004F00000FA02FCC2F12002BCF1004F20FA02F225
:1005000043EB020008BF20F00100704702F1200217
:1005100001FA02FCC2F1200250EA4C0021FA02F278
:1005200043EB020008BF20EADC7070474FF0FF0C7D
:100530001CEAD0521EBF1CEAD15392EA0C0F93EA78
:100540000C0F6FD01A4480EA010C400218BF5FEA1A
:1005500041211ED04FF0006343EA501043EA51118D
:10056000A0FB01310CF00040B1F5000F3EBF490087
:1005700041EAD3715B0040EA010062F17F02FD2A8B
:100580001DD8B3F1004F40EBC25008BF20F001006E
:10059000704790F0000F0CF0004C08BF49024CEA85
:1005A000502040EA51207F3AC2BFD2F1FF0340EA17
:1005B000C250704740F400004FF00003013A5DDC88
:1005C00012F1190FDCBF00F000407047C2F10002C9
:1005D000410021FA02F1C2F1200200FA02FC5FEAB6
:1005E000310040F1000053EA4C0308BF20EADC7000
:1005F000704792F0000F00F0004C02BF400010F472
:10060000000F013AF9D040EA0C0093F0000F01F01E
:10061000004C02BF490011F4000F013BF9D041EA40
:100620000C018FE70CEAD15392EA0C0F18BF93EA42
:100630000C0F0AD030F0004C18BF31F0004CD8D16C
:1006400080EA010000F00040704790F0000F17BFF3
:1006500090F0004F084691F0000F91F0004F14D039
:1006600092EA0C0F01D142020FD193EA0C0F03D191
:100670004B0218BF084608D180EA010000F0004094
:1006800040F0FE4040F40000704740F0FE4040F46F
:10069000400070474FF0FF0C1CEAD0521EBF1CEA0E
:1006A000D15392EA0C0F93EA0C0F69D0A2EB03022C
:1006B00080EA010C49024FEA402037D04FF08053C6
:1006C00043EA111143EA10130CF000408B4238BF8B
:1006D0005B0042F17D024FF4000C8B4224BF5B1A99
:1006E00040EA0C00B3EB510F24BFA3EB510340EAE7
:1006F0005C00B3EB910F24BFA3EB910340EA9C0095
:10070000B3EBD10F24BFA3EBD10340EADC001B0104
:1007100018BF5FEA1C1CE0D1FD2A3FF650AF8B42A8
:1007200040EBC25008BF20F0010070470CF0004CB5
:100730004CEA50207F32C2BFD2F1FF0340EAC250E0
:10074000704740F400004FF00003013A37E792F0A1
:10075000000F00F0004C02BF400010F4000F013AFF
:10076000F9D040EA0C0093F0000F01F0004C02BFFA
:10077000490011F4000F013BF9D041EA0C0195E763
:100780000CEAD15392EA0C0F08D142027FF47DAFFC
:1007900093EA0C0F7FF470AF084676E793EA0C0FEC
:1007A00004D14B023FF44CAF08466EE730F0004CEA
:1007B00018BF31F0004CCAD130F000427FF45CAF7A
:1007C00031F000437FF43CAF5FE700BF4FEA4002E7
:1007D000B2F1FE4F0FD34FF09E03B3EB12620DD96F
:1007E0004FEA002343F0004310F0004F23FA02F0D9
:1007F00018BF404270474FF00000704712F1610F80
:1008000001D1420205D110F0004008BF6FF0004056
:1008100070474FF00000704753B94AB9002908BF2C
:1008200000281CBF4FF0FF314FF0FF3000F00CB834
:10083000ADF1080C6DE904CE00F008F8DDF804E035
:10084000DDE9022304B07047704700BF2DE9F0478F
:1008500086468C460846089E154674461946002B67
:1008600040F0C1808542B2FA82F245D94AB1C2F164
:10087000200300FA02FC954094402EFA03F343EA69
:100880000C0C4FEA154EA8B2230CBCFBFEF80EFB75
:1008900018CC08FB00F943EA0C43994528D9EB181A
:1008A00008F1FF3704D2994502D9A8F102072B4479
:1008B000A3EB0903A4B2B3FBFEFC0EFB1C330CFB41
:1008C00000F044EA0344A04214D92C190CF1FF3380
:1008D00004D2A04202D9ACF102032C44241A43EA08
:1008E00007401EB1D440002334607360BDE8F08738
:1008F0004746DDE76346F1E792BB431B01214FEA20
:10090000154EAFB2200CB3FBFEFC0EFB1C330CFBF0
:1009100007F840EA0343984561D9EB180CF1FF3022
:1009200004D2984502D9ACF102002B44A3EB080392
:10093000A4B2B3FBFEFC0EFB1C330CFB07F744EA2E
:100940000344A7424DD92C190CF1FF3304D2A7421E
:1009500002D9ACF102032C44E41B43EA0040C0E797
:10096000C2F120039540944020FA03F12EFA03F3DC
:100970004FEA154E9040AFB20343B1FBFEFC0EFBB5
:100980001C10190C0CFB07F841EA0041884522D9DC
:1009900069180CF1FF3004D2884502D9ACF102008D
:1009A0002944A1EB08019BB2B1FBFEFC0EFB1C111C
:1009B0000CFB07F743EA01439F420ED9EB180CF1F9
:1009C000FF3104D29F4202D9ACF102012B44DB1B60
:1009D00041EA004193E76046E3E76146F7E7604696
:1009E000A4E76346B8E7834206D916B90021084652
:1009F0007CE7C6E900E0F9E7B3FA83F78FB98342F1
:100A000001D3724508D8BEEB020460EB030301205A
:100A10009C461EB9002169E73846FAE7C6E9004C52
:100A2000F8E7C7F1200CBB400EFA07F522FA0CF4E8
:100A30002EFA0CF1BA401C4320FA0CF3B8404FEAEE
:100A4000144901431FFA84FEB3FBF9F809FB18307F
:100A50000B0C08FB0EFA43EA00439A4540D9E31811
:100A600008F1FF3004D29A4502D9A8F102002344CC
:100A7000A3EB0A0389B2B3FBF9F809FB183308FBAF
:100A80000EFE41EA03418E452CD9611808F1FF336F
:100A900004D28E4502D9A8F10203214443EA004062
:100AA000A1EB0E01A0FB02984145CE46434602D37E
:100AB00006D14D4504D20138B9EB020E68EB0403B0
:100AC000002EA7D0B5EB0E0261EB030101FA0CFC7E
:100AD00022FA07F3F9404CEA0303C6E9003199E72B
:100AE0004046C5E74346D9E708B5024802F0BFF8DB
:100AF000002008BDCC3B0010014B1B68184700BF0D
:100B000000000020014B1860704700BF000000206B
:100B100030B585B004460D4610220021684602F02B
:100B2000CFFD02238DF80230044B2A462146684649
:100B3000019301F05FFD05B030BD00BFF90A001060
:100B400080B505460E461746984601F013FB03464E
:100B500002F020FE0446DFF81890424649F80030C3
:100B600039463046A84754F8090000F083F900BF21
:100B70000800000030BFFFF7FDBF00BF2DE9F041C6
:100B800005460B4EDFF82C80324606EB0807CC1BDF
:100B90002046094902F087FDA01942460021083C81
:100BA00002F08EFD6C6607F10800BDE8F08100BF21
:100BB00000000000040000006C3A0010054B5A6968
:100BC0009B689A421FBF044A536843F080535360A6
:100BD000704700BF4C02002000ED00E0154B9A6A00
:100BE00012F0007F9A6A14BF1E201D2012F0807F31
:100BF0009A6A18BF1F2012F4801F9A6A18BF20201B
:100C000012F4002F9A6A18BF212012F4802F9A6ADA
:100C100018BF222012F4003F9A6A18BF232012F452
:100C2000803F9A6A18BF24206FEA02426FEA12429C
:100C30009A62704700ED00E010B5164B9A6A9C6A04
:100C400012F4805F14BF1722162214F4006F9C6AFE
:100C500018BF1822A40509D59A6B9A6A120404D504
:100C600018B19A6A22F400429A621922094B986AD2
:100C700010F4806F986A18BF1A2210F4807F986A67
:100C800040F47F4098624FF000030CBF10461B20D9
:100C90000B7010BD00ED00E010B5154B0246986AD0
:100CA0009C6A10F0100F14BF1120102014F0080FD0
:100CB0009C6A18BF1220A40709D5586B986A0006D1
:100CC00004D51AB19A6A22F080029A621320084B66
:100CD0009A6A12F0010F9A6A18BF1420D20658BF00
:100CE0009A6A9A6A42F0FF029A6200230B7010BD62
:100CF00000ED00E0F0B5474B04465B6800258BB083
:100D0000C3F3080385F31188BFF36F8F02F07F40B0
:100D1000B0F17F4F11D102F00C0008280DD0100760
:100D20004CBF0C4601250022033B8DF80720032B06
:100D300005D8DFE803F02462665F2C46F3E7002362
:100D40009DF80720CAB902AE04F120073246206898
:100D50006168083403C2BC421646F7D1099A002DD7
:100D600053D0C2F3080121B96FEA52226FEA42223E
:100D70000992184602A901F088FF0BB0F0BD254B7F
:100D8000DA6A9107DBD4DA6A002AD8DBDA6A520021
:100D9000D5D55A69A16942F480725A61BFF34F8F69
:100DA000BFF36F8F5A6931F8021C22F480725A61C6
:100DB000BFF34F8FBFF36F8F4DF60272914209D090
:100DC0009A6AD2B242B101200DF10701FFF764FF28
:100DD0000346B5E72368B3E79A6A12F47F4F05D05C
:100DE00001200DF10701FFF727FFF1E79B6AB3F53B
:100DF000803FA4D3FFF7F2FEEAE700200DF10701E0
:100E0000E4E700200DF10701EDE722F4FF7222F084
:100E10000102ADE700ED00E0044B5A6942F0100218
:100E20005A615A6922F008025A61704700ED00E0E9
:100E3000EFF30880EFF3098101B57246FFF75AFF1F
:100E400001BD00BF01F052FF102080F31188084857
:100E50004FF40061401880F30988EFF314800221F9
:100E6000084380F31488BFF36F8F00F079F8000017
:100E700080020020084B9B6883420BD1EFF305836F
:100E800043B1064B5A6842F080525A605A6A22F4C3
:100E900000425A6201F074B94C02002000ED00E0FB
:100EA00011498A684FF030001044EFF3098C80E854
:100EB000F01F102080F31288BFF36F8F0B4F4FF09D
:100EC00000664A698A603E60506E094C2060906EF0
:100ED0000023936680F3118802F1300090E8F01F40
:100EE0008CF30988704700004C02002004ED00E0FC
:100EF000F00100201EF0040F0CBFEFF30880EFF3A9
:100F00000980816911F8021C0229FFD001B57246DF
:100F100001F0C1FE01BD00BF40B2002807DB012384
:100F20004109034A00F01F00834042F82130704716
:100F300000E100E040B2002801F10101ACBF00F186
:100F40006040064B4FEA0111C9B2ABBF00F56140EA
:100F500000F00F0080F800131954704714ED00E002
:100F600008B5084B084A23F07F039360BFF34F8F07
:100F7000BFF36F8F00F0E4FE01F018FA00F044F8C0
:100F800000F01EFF0002001000ED00E042F8203CDF
:100F9000009B0B4942F81C3C019B21F0010142F8E7
:100FA000183C029B42F8081C42F8143C4FF0807336
:100FB00042F8043C0023203A02658366704700BF74
:100FC000410B001000B5094B15469860426E084B66
:100FD0000E461A602C4686F309880020054B984778
:100FE0002046002100220023034C20474C02002011
:100FF000F0010020B52C0010410B00101022014B15
:101000001A61704700ED00E0002310210348C21868
:101010000133342B82F80013F9D1704700E100E06E
:1010200008B5EFF30583064A103B02EBC30152F803
:10103000330049688847BDE80840FFF7BFBD00BFDF
:101040003038001008B5024B1B689847002008BDD7
:10105000F4010020034B044A1860937843F0020324
:1010600093707047F40100200400002008B5054883
:1010700001F0FDFD002383F31188BFF36F8F04237C
:10108000184602DFFA3B001008B50649064821F071
:101090000701C1F1202202F5002201F08EFD00209F
:1010A00008BD00BF870F0020F80100204FF08072BC
:1010B000074BDA61A3F54053DA69D20102D56FF02C
:1010C000150070470160D86910F08070F7D1704743
:1010D00000B00E400B2907D8DFE801F00909090923
:1010E000121E27062D2D3A3A4FF0FF3070470C2282
:1010F00051430368184A5B58C3F34313D0567047F3
:10110000164B1A6B1B6B13F003031FD0022B1FD05F
:10111000C2F34313124AF1E7104AD36BD26B920722
:1011200018D0104AC3F34313E8E70C4B0E4A9B6CEC
:10113000C3F34313E2E70C23594301F1804101F566
:1011400080310B68094AC3F34313D7E70E20704779
:101150000C20704704207047193C0010000001402B
:10116000163C0010103C0010093C0010033C00101D
:101170002DE9F04107460C467D68214628463E6928
:1011800001F0F2FD00286CD00E2C6AD8DFE804F0E4
:101190000808080808082B69080831316B636700E4
:1011A000214628462E68FFF795FF01463846FFF78F
:1011B000DFFF0C2303FB046305465E68586880B2BA
:1011C000FFF75CF92949FFF765FA0446300CFFF791
:1011D00055F901462046FFF7A1F801462846FFF7DA
:1011E00059FABDE8F08106212846FFF773FF04464F
:1011F000C2E72146D5E9023628460A2C08BF1E461A
:10120000FFF768FF01463846FFF7B2FF0446B068B3
:10121000FFF734F92146FFF789F9D6F80080044634
:1012200008F03F00FFF72AF901462046FFF732FA9F
:10123000F7680446C7F30240FFF720F9014620464D
:10124000FFF728FAF5680446C5F30230FFF716F9F0
:1012500001462046C3E73068FFF710F9C1E7706820
:10126000FAE70020BDE70248BBE700BF00FF7F4769
:10127000001B374B2DE9F0438FB005AA9046446818
:10128000A36825680393E36826690493674B03F119
:10129000200C174618685968083303C763453A4657
:1012A000F7D11B88624A3B80624B1A60624A634BEB
:1012B0001360A2F54052976833EA0707FBD10C2070
:1012C00002F010F90C21022002F010F90C21032089
:1012D00002F00CF9C5F8847000F0EAFB584BDA6BA9
:1012E00022F00302DA635A6C012AFCD11A6B22F055
:1012F00003021A639A6B012AFCD1636AE269DFF880
:101300004491009309FB02F2236AA169039800F05B
:1013100075FB636BE26A0093A16A049809FB02F211
:10132000236B00F06BFB1121404601F070FD18F8B3
:10133000170018F91710092861D90137112FF6D1B4
:101340004FF4006305F540521360D36005F5405239
:1013500005F5405593616B62D4F8D81006F118007A
:1013600041F42A61FFF7A2FE002855DBD4F8DC1017
:10137000304641F47A0141F43041FFF797FE0028EE
:101380004ADBD4F8E010002949D01F294AD801F5DA
:101390002A4106F11400FFF789FE00283CDBB4F86F
:1013A000E410294D301D2943FFF780FE002833DB70
:1013B000B4F8E61006F108002943FFF777FE00288D
:1013C0002ADB6FF060421C4B1A60A3F540539D6806
:1013D000ED4335F06045FAD12946606902AA01F073
:1013E000FDFD002807DB029B2A461979186801F0E9
:1013F00008FE002801DA831C0ED100200CE004EB6B
:1014000001110B6C00934B6CD1E90E1202F046F8FF
:10141000002892D16FF015000FB0BDE8F0834AF6B6
:101420000121B6E74FF42A41B3E700BF6C3A001040
:101430007F3BEFEF0020024000300240F6FFF30355
:1014400000000140001BB7000000969608B5074851
:1014500002F06FF838B10648FFF7FCFD0448FFF7CB
:1014600051FB002008BD6FF01200FBE708380010A8
:10147000751400100A2838B50446074D04D1AB682E
:101480000D2128465B689847AB6803485B68E1B26A
:101490009847204638BD00BF083800104FF0504331
:1014A000084A1968084B002918BF134630331A46FA
:1014B000106820B90432D11A1429F9D970470120D3
:1014C000704700BF908202404882024070B50D46CE
:1014D000144606698AB91146284600F019FB2A4BC2
:1014E00003EB850253F8253002F5805283F0800328
:1014F00003F0C0031360002070BD2846C2F3401201
:10150000C4F3001100F004FB0521284600F0E4FAC2
:1015100014F480311BD04FF0000343EC4450A3037C
:10152000E9D50123A007326903FA05F11BD50A4367
:101530006007326172690ED5114371614FF000038B
:1015400043EC4050C4F3804444EC4450D3E7284675
:1015500000F04AFBE3E722EA0102726143EC4050EB
:10156000C4F3C044F0E722EA0102326114F400221D
:1015700004D043EC405043EC4450BCE76103FAD53F
:1015800042EC4050F7E700BF048003402DE9F843E8
:10159000064600240769DFF85C80E3080C3308EB9B
:1015A00083039B6C04F007029200D3401B0704D115
:1015B0000134302CF1D1BDE8F8830F21204600F032
:1015C000E5FA79680029F3D04FF001090D6809FAAE
:1015D00004F90029ECD08A6819EA020202D03046E8
:1015E0004B6898471DB12B6829461D46F1E72B46ED
:1015F000FAE700BF008202402DE9F843D0F81090CE
:10160000054699F808300F469046002B40F091802F
:101610005AB143681A68136B23F0010313634368DC
:101620001A68D36A23F01003D3626B683A791B6897
:10163000012ADC6A24F0EE0405D0022A13D022B17C
:101640006FF0850061E044F002047A79012A03D04A
:10165000032AF5D144F00804BA79032AF0D8DFE868
:1016600002F00705151844F00604EEE744F02004E4
:10167000FA798AB1012AE3D11A6B42F480421A63E3
:101680006B681A68136B43F400430EE044F04004A7
:10169000EEE744F06004EBE71A6B22F480421A6331
:1016A0006B681A68136B23F4004300261363D9F8A0
:1016B0000C103A68334612018801890EFFF7ACF826
:1016C0000346DFF874C0403B61F100029C4576EBB5
:1016D00002022BD36B681A68830943EA8163536261
:1016E0006B6800F03F001B689862BFF35F8F304665
:1016F0006B681B68DA6ADA626B681B68DC623B68DD
:10170000C9F800307B68C9F80430B8F1000F0BD07D
:101710006B681A68D36A43F01003D3626B681A6867
:10172000136B43F001031363BDE8F8836FF01500FA
:10173000EBE76FF08500F7E780FF3F004FF0E02315
:1017400010B50F499C691A6908689B690D4902F434
:10175000803234B993B903464AB90A681044C01AB2
:1017600010BD002B08BF03460AB9A342F5D90A6889
:1017700002440A604FF0E0221269EEE70446F3E704
:10178000200200201C02002010220A4B002083F8B7
:10179000232043F69822084B1A60084B43F6972201
:1017A00018604FF0E0235A6198611A6942F007020D
:1017B0001A61704700ED00E0200200201C020020AA
:1017C000684620F007018D4619B5FFF7B7FF1149AC
:1017D000114B0868D3E90042001942F10002C3E945
:1017E000000200230B6043F698230C4AD2E9004123
:1017F000001BB0FBF3F043431B1941F10001C2E9A8
:10180000003100F093FEFFF7D9F9BDE81940854695
:10181000704700BF1C0200207800002070000020EC
:101820002DE9F041DFF8E08099B1421C0BD14FF077
:10183000E022136923F0010313614FF07F43C8F8DE
:101840000030BDE8F081D8F80060012807DC0027EF
:101850000BE0431CD8F80060F7D140F25D4040F245
:101860005E439842A8BF1846471EEFF31185102328
:1018700083F31288BFF36F8FFFF760FF4FF0E02311
:10188000224C9969D4E9002380184FF0000243F1FB
:101890000003C4E900031E4B1A601E4B1A68831A2A
:1018A0002ED443F6982C0CFB073303F56A531733F9
:1018B000B3FBFCF7131A0CFB0733B3F5806F38BF8B
:1018C0004FF48063144A934228BF13464FF0E0223E
:1018D000C8F80030013B9069536100238142936155
:1018E000A1EB000338BF9B19D4E900125B1842F149
:1018F0000002C4E9003285F31188BFF36F8FA0E7BF
:101900004FF48063E2E700BF20020020780000204F
:101910001C0200207000002038A9FF0038B5EFF34A
:101920001185102383F31288BFF36F8F084B1C6857
:10193000084B1B68E41AFFF701FF85F31188BFF31A
:101940006F8F43F698232044B0FBF3F038BD00BFFF
:101950007800002070000020F0B50C24444304F10E
:10196000804404F58034059E94466268071FB242A5
:10197000FFB238BF6660012F04F5405219D8012923
:1019800017D103251560A268D207FCD5226804F59B
:10199000805582EA4C1202F0E0022A6022684A4036
:1019A00002F003022A6001228A40A1681142FCD0A1
:1019B00018E04FF4006515600F4D55F820203AB13E
:1019C0006D69B5FBF2F5013505EB4505033DFDD22B
:1019D000226804F5805582EA4C1202F0E002012FE1
:1019E0002A60DBD94FF4006104F500521160024A0D
:1019F000666042F82030F0BD24020020F8B5264E83
:101A0000264F274D1644BE42B5FBF1F5069C01D981
:101A100001F064F9B2FBF5F2A2F11005B5F5987F7B
:101A2000F6D85D1E062DF3D8651E062DF0D82403CA
:101A300044EA03430468002C0EDA046804F03F040F
:101A40008C4209D18468C4F30B04944204D1C46865
:101A500004F4EE249C421DD0124D0124A8420CBF78
:101A60000F250E25AC40104D104E2C6005F580550D
:101A70002C60B56834EA0505FBD101602121826044
:101A800000F540520432116001680029FCDAC3609D
:101A900008231360F8BD00BF80E84BD380F8A9325B
:101AA000001BB700008005400020024000000240FB
:101AB0004FF42A62054B06491A602F22DA60054A64
:101AC00011605A68002AFCDA704700BF00800440A9
:101AD00000B0FA0000A0044010B50C4B03EB8002EC
:101AE00053F8203002F5805483F0400303F0C00324
:101AF00023604FF48073C00000F1804000F5203077
:101B000002F540524160136010BD00BF04800340E5
:101B100010B5074CC90004EB800354F8200041EADB
:101B20008201414001F00C0103F58053196010BDA2
:101B300004800340054B03EB8000022319B100F53C
:101B400000500360704700F54050FAE704800340FE
:101B5000054A02EB800352F8202003F580535140E0
:101B600001F001011960704704800340064B03EB4C
:101B7000800253F8203002F5805283EA011303F00B
:101B800030031360704700BF04800340C30800F0B7
:101B90000700034A800081408C3342F823107047CD
:101BA00000800240F8B54FF05043064617460C4CF3
:101BB0001A680C4B0D46002A18BF1C46FFF7E6FFBB
:101BC00006F007039B00F60805FA03F304EB860012
:101BD0001FB100F500500360F8BD00F54050FAE772
:101BE0004882024090820240054B03EB8000402374
:101BF00019B100F500500360704700F54050FAE756
:101C0000048003404FF0E022044BD2F8881D0B43C0
:101C1000C2F8883D10EE3004704700BF0303300067
:101C200038B5EFF31185102383F31288BFF36F8F5C
:101C3000064B9C6801F090FC85F31188BFF36F8F11
:101C40002046BDE83840FFF715B900BF4C02002020
:101C500038B5094B53F82040013053F82050A542C5
:101C600000D838BD636823B1204601F078FC083401
:101C7000F5E723689847FAE7B43B0010012270B5F6
:101C80002A4B032086B01A70FFF7E2FF00F0ACFC8D
:101C900001F081FC0420FFF7DBFF254C254D264693
:101CA000AE4204F1300410D300F0F0F9204C224E83
:101CB000AC4226D300F0FEF9FEF716FF1F4A137B55
:101CC00023F00103137306B070BD54F80C3C059368
:101CD00054F8103C049354F8143C039354F8183C03
:101CE000029354F81C3C019354F8203C009354E9AF
:101CF0000A2354E90C0100F0BFF854F8303C5E654B
:101D0000CDE7D4E90A23B3F1FF3F08BFB2F1FF3FAB
:101D100005D052EA0301206803D100F007FA3034FD
:101D2000C6E73146183000F08BFBF8E77C02002054
:101D3000D0390010D03900102B360010F0000020F0
:101D400008B50348034A0021121A01F020FC08BD1F
:101D50007000002080020020702370B5134E012215
:101D600003FB0066002386B0CDE904230F22019314
:101D7000CDE9023214230E4D0E4903FB00550446F3
:101D800001EB00214FF4807230460B4B009500F0C0
:101D900073F8737B2C7423F004037373074B0134C3
:101DA00003EBC423EE606B6006B070BD80000020C2
:101DB0004C020020800A002099350010800200208B
:101DC000BFB50020FFF744FF234B83F308880024AE
:101DD000F023224D224F85F82230EC772C766C765A
:101DE000AC766B6A43F4E0236B62FFF715F8FFF7FC
:101DF00005F94FF0FF331B48AB62EB6200F074F85B
:101E000001F096FB0120FFF723FF0220164DFFF79C
:101E10001FFF00F083F9154B15495D61154B4FF419
:101E20008062059301232846CDE90343CDE90144AF
:101E30003B46009400F020F806466A7B284622F0D4
:101E400004026A7301F0C5FB2046FFF785FF3A469E
:101E500031462846FFF7B6F8800A002000ED00E082
:101E60007D1C001060010020F00000204C020020CA
:101E7000800B0020733C00102DE9FF41984600F1D3
:101E80005803C0E916330E9B002603730423D51DA7
:101E9000437325F007050D9B0D440F4683732946B8
:101EA000C0E906668660C6730446FEF767FE0C9BB3
:101EB000073002930B9B20F0070001930A9B2D1A19
:101EC00000932A46434639462046FFF75FF8054B04
:101ED00066659B6803B11B6E2846236604B0BDE8A7
:101EE000F08100BF4C02002040F2011383810023E7
:101EF0000366014B986070474C0200206FF00A01A6
:101F0000084A9368D966084998664B6843F080533D
:101F10004B60002383F31188BFF36F8F9368D86EF3
:101F2000704700BF4C02002000ED00E070B590F952
:101F30000D20437B002A36DBD90634D11B4C63F0DD
:101F40007F032246437352F8183FE169934207D159
:101F5000C0E900210860E06111E09942F8D01B68F7
:101F6000002BF5D090F90E5093F90E60B542F4D0E5
:101F7000AE42F2DD5968C0E9003108605860A569D9
:101F8000954200D005B9E568A3685A7BD20604D112
:101F9000DA897F2A01D9AA6932B1AB4202D0284638
:101FA00000F0ACF9656170BD6361FCE74C02002094
:101FB00070B590F90D200146002A437B04DA03F046
:101FC0007F03437301F0F3FA1C4C4B7B224663F012
:101FD0007F034B7352F8183FE069934207D1C1E980
:101FE00000200160E16111E09842F8D01B68002BED
:101FF000F5D091F90E5093F90E60B542F4D0AE428F
:10200000F2DD5868C1E9003001605960A569A36834
:10201000954200D005B9E5688B4207D05A7BD206BD
:1020200004D1DA897F2A01D9AA692AB1AB4202D048
:10203000284600F063F92B46636170BD4C02002016
:1020400049B9EFF3058030B9054B5A699B689A424C
:1020500001D0FFF753BF81F31188BFF36F8F704733
:102060004C020020034648B9EFF3058232B9064A14
:1020700051699268914201D0FFF740BF83F3118804
:10208000BFF36F8F704700BF4C020020EFF3118148
:10209000102383F31288BFF36F8F054B9A68D37BAD
:1020A000013BD37381F31188BFF36F8F704700BF7B
:1020B0004C02002070B5EFF31186102383F31288D1
:1020C000BFF36F8F144DAB68DA7B0132DA732A46A7
:1020D00052F8184F944200D004B9EC685A7BD206EB
:1020E00004D1DA897F2A01D9A2692AB1A34202D098
:1020F000204600F003F923466B6186F31188BFF395
:102100006F8FEFF31180102383F31288BFF36F8F6B
:10211000BDE87040FFF7A6BF4C020020024B03F160
:102120001802C3E9062270474C02002038B5044665
:10213000EFF31185102383F31288BFF36F8F437B76
:102140005B070FD5183001F08DFA637B204623F032
:1021500004036373FFF7EAFE2946BDE838400448EC
:10216000FFF76EBF85F31188BFF36F8F38BD00BFD7
:102170007D020020014B9868704700BF4C02002090
:102180002DE9F8430446077BEFF31186102383F310
:102190001288BFF36F8F437B190705D586F311882B
:1021A000BFF36F8FBDE8F883D90943F0080261D10E
:1021B0004273A36813B1204601F001FA04F118003C
:1021C00001F050FAA56D04F15808A84511D04FF060
:1021D000000975B1284601F0F2F905F1180001F087
:1021E00041FA2846C5F86C90FFF7A0FEA56DA845FA
:1021F000EFD1DFF8A080D8F808309C4242D1EFF34D
:102200000589B9F1000918BF4FF00109D8F8185035
:10221000214A954200D00DB9D8F80C50AB4202D0FB
:10222000284600F06BF8C8F81450B9F1000F02D03E
:102230001A48FFF759FED8F808309C4225D1EFF331
:10224000058313BB227BD20706D583F31188BFF326
:102250006F8F0423184602DF3046FFF74FFEFB075F
:10226000A0D5002383F31188BFF36F8F0423184692
:1022700002DF97E703F07F0343F00803437301F0A5
:1022800096F996E74FF00009C0E786F31188BFF38F
:102290006F8FE4E74C020020640200206001002000
:1022A0000122044BC01A044BC0105843034B1A546C
:1022B000704700BFD0010020ABAAAAAA7D0200206F
:1022C000C3897F2B12D80A4B1B6863B1094B90F965
:1022D0000E201B689A4209DB437BDB0606D1064BC6
:1022E000C31A18BF012303F0010070470023FAE767
:1022F00074020020700200208000002070B50E4B98
:102300000E4C1E7C182303FB06440546204601F0B4
:10231000A9F900220A4B28469A55FFF7D1FF48B188
:10232000084B2046BDE870401A680749013AD317A8
:1023300000F086B870BD00BF4C020020D001002024
:102340007D02002074020020A122001038B5EFF3B6
:102350001185102383F31288BFF36F8F104B114A3E
:102360009C681068A04206D1FFF7C8FF85F311886A
:10237000BFF36F8F38BD00211B7C11600A4AD35C0C
:10238000002BF3D02046FFF79BFF0028EED0637BA5
:10239000DB0602D12046FFF70BFE2046E4E700BF34
:1023A0004C0200206C0200207D020020074808B586
:1023B000074A0849121A01F0ECF8BDE8084006483F
:1023C000064A0749121A01F0E4B800BF00000020D5
:1023D0006C000020C43C0010000000200000002021
:1023E000C43C0010024B1868984208BF0020704798
:1023F0005C000020034B1B680BB9FFF78FBA00206D
:10240000704700BF7802002030B570B10B4B5B689D
:1024100098420AD0036843B1D3E90421D0E90445C6
:10242000121941EB0501C3E90421D0E90032136020
:102430005A600023C0E9003330BD00BF5C000020BB
:10244000B3F1FF3F08BFB2F1FF3FF8B504461D46A8
:1024500016465AD08160EFF31187102383F3128858
:10246000BFF36F8F013275F1FF3321DA6FF0010393
:102470002B49D1E900209B1A4FF0FF3262EB00009C
:102480009E1B60EB0500012E70F1000301DA0126AE
:102490000020C4E90460FFF7A5FF224E844670685F
:1024A000BCF1000F0DD1C4E90060046074601CE051
:1024B000FFF7A0FF013645F10005361845EBE07047
:1024C000E7E7DCE90425D4E90431934271EB050E1A
:1024D0001CDAD21ADCF8043065EB0105CCE90425DE
:1024E000C4E900C31C60CCF80440FFF77BFF8442C2
:1024F00007D10D4B1C6824B901F09BF82146FFF76A
:102500008FF987F31188BFF36F8FF8BD9B1A61EBCA
:1025100005018445C4E90431C5D0DCF800C0BFE73B
:10252000E80100205C000020780200202DE9F0473F
:10253000EFF31185102383F31288BFF36F8FDFF859
:10254000A0900026C9F800000027FFF74BFFDFF836
:102550009480D9F80030D8E900ECD91750B1D0E90F
:102560000442A34271EB020A1ADAE41A62EB010296
:10257000C0E90442002413EB0E034CEB0101C8E94F
:102580000031C9F8004001F054F82146FFF748F93E
:1025900085F31188BFF36F8FBDE8F047FFF7D6BE14
:1025A00014EB0E024CEBE473C0E90467C8E90023A6
:1025B000FFF72AFF85F31188BFF36F8F8368984771
:1025C000EFF31185102383F31288BFF36F8FD9F8CF
:1025D00000301B1BC9F80030FFF704FFB9E700BF4C
:1025E00078020020E8010020014800F040BB00BF55
:1025F000783C00102DE9F04F43688DB015468046B9
:10260000029383789A0740F10D8100240E78002E02
:1026100000F00A81252E0BD04B1C03930134414658
:102620003046029B98470028C0F2F6800399EDE7F8
:102630004E788B1C252E0393F0D00027B946BB465D
:10264000BBF11F0F38D8A6F12003102B0AD8DFE802
:1026500003F02A0909300909092109090928092D66
:1026600009091F00A6F13003092B33D92A2E37D1CF
:102670001BF0400F55F8043B40F08280002BA7BFB1
:102680004BF0200B9946C3F100094BF0280B01E0F9
:102690004BF0010B039B13F8016B0393002ECFD17A
:1026A00030E04BF0020B4BF0040BF3E74BF0080B60
:1026B000F0E74BF0100BEDE7BBF17F0F19D8A6F157
:1026C0003003092BD2D81BF0400F03D00A2101FBA5
:1026D0000737DFE70A214BF0200B01FB0939D9E767
:1026E0002E2E06D11BF0400F40F09E804BF0400B89
:1026F000D0E76C2E31D02BD8682E36D06A2E3CD045
:102700004C2E3AD0002F46F02003B8BF2BF04002E9
:10271000A3F16501BCBF00271FFA82FB022901D982
:10272000612B2FD107350727DFF8ACA225F007056D
:1027300008351BF0080F66D00AEB070B56465E45BE
:1027400063D1A4EB0A0AA9EB070906EB0A026FE1C1
:10275000742E9FD07A2E9DD0D4E71BF0800F18BF27
:102760004BF4007B4BF0800B94E71BF4807F18BF89
:102770004BF4007B4BF4807B8CE74BF4207B89E7A8
:102780001F4687E7A6F16301122900F2F080DFE817
:1027900011F013004F00EE00EE00EE00EE004F00CF
:1027A000EE00EE00EE00EE00EE00FE00E900EE00AE
:1027B000EE001B00EE00AF0055F8043B01270DF1C1
:1027C000180A8DF81830B4E755F804AB834BBAF10A
:1027D000000F08BF9A461BF0400F504614BF394601
:1027E0004FF0FF3100F074FF0746A2E7414620207A
:1027F000029B984700280FDB013EB742F6D34C44BA
:10280000B146A41B98E74E46F7E7414616F8010B80
:10281000029B9847002892DA98F8023043F00403AC
:1028200088F802304FF0FF3420460DB0BDE8F08F3D
:102830001BF0800F34D01BF4007F2CD0073525F01F
:102840000705AA4669685AF8080B2BF010050029FD
:10285000ADB237DA404245F4806561EB41010DF1DC
:10286000180B0A235A4600F03FFFA0EB0B0301931D
:102870006B0662D5019B25F001019F4289B240F3AE
:10288000A180002E00F0998015F0100240F09C808D
:10289000BB460D4623E0AA465AF8040BC117D4E7FD
:1028A000AA461BF4807F5AF8041B01D10846F5E7BD
:1028B0001BF4007F19BF48B241F3C01108B241F3C5
:1028C000C031C2E750EA0103C9D11BF0400FC6D0A6
:1028D000002FC4D12BF01102BB46019795B240F2F4
:1028E000064115EA01021CBF0BF1010B00222CE08E
:1028F0002BF010020A231FFA82FB1BF0800C49D038
:102900001BF4007115BF0735AA4625F007055AF8D4
:10291000040B1EBFAA4669685AF8080B50EA010565
:1029200045D12BF016051BF0400FADB242D0002F61
:1029300040D12BF01702019795B215F0100248D044
:10294000019B002E42D103F1010B29075AD4EB075A
:1029500006D5D9456FDDA9EB0B030199CB465F186E
:102960005B4649E04BF0100B10237826C5E7782B27
:1029700004D1C6F1780343F01003BEE74146252099
:10298000029B98470028FFF647AF023447E608232A
:102990000026B2E7AA461BF480715AF8040BBDD09A
:1029A0001BF400711ABFC0B2614680B2B6E72BF0CB
:1029B000060295B20DF1180B54E725F01105BB4640
:1029C000ADB28CE70D46B8E73B460D4603F1020B6E
:1029D000BBE7DDF804B082E7BB3C0010B43C00105C
:1029E000CDE9043241462020029B98470028FFF69B
:1029F00013AF049B059A01339945F1DCA4EB0B015D
:102A00009B46CC180AB341463020029B98470028C9
:102A1000FFF602AF8EB901342744391B019B99425E
:102A200024DC1D4655BB019AA9EB0B0955462244EF
:102A30001446914433E0019F92E702344146304608
:102A4000029B98470028E7DAE6E640F206410D428D
:102A5000E2D015F0020F04F10104414614BF2B200F
:102A6000202015F4806F18BF2D20E9E74146302063
:102A7000029B013498470028CFDACDE606AB013D32
:102A80004146585D029B98470028CBDAC4E6414690
:102A90002020029B013498470028FFF6BDAEA9EB29
:102AA0000403002BF3DCC1E57047836800EBC10130
:102AB000B3F5004F2CBF51F8220031F812007047D7
:102AC00000EBC1018068B0F5004F2CBF41F8223007
:102AD00021F812307047012208B5FFF7E6FFD04019
:102AE00008BD836800EBC101B3F5004F08D34B6804
:102AF0001AB143F001034B60704723F00103FAE77A
:102B00004B881AB143F001034B80704723F0010357
:102B1000FAE753000122FFF7D3BFB0F5004F34BFEF
:102B200004230823481C0833A0EBD300B0FA80F03C
:102B3000C0F11F0070472DE9F0410D46866804463C
:102B4000FFF7C9FFB6F5004F014601D3012832D087
:102B50003046FFF7E2FF04EB80010E6996B90122CF
:102B6000E36882401343E36002220D612B4629464D
:102B70002046FFF7A5FF032229462046BDE8F04185
:102B8000FFF79EBF022231462046FFF78EFF074621
:102B9000034629462046FFF793FF03223346294682
:102BA0002046FFF78DFF39462B462046FFF788FF6A
:102BB00002223146E1E7BDE8F081B2F5802F2CBF5B
:102BC000082304232DE9F0410026D21A8C18CD1DCC
:102BD00025F0070524F00704641BE408056021467E
:102BE0002046AC60EE60FFF798FF421D9200013076
:102BF00002F107074FEAD7073146A2F1100205F1AB
:102C00001000B8BF324600F05BFD3A463146284618
:102C1000FFF77FFF3346324631462846FFF750FF25
:102C2000A4EB0708284631460122FFF75AFF424627
:102C30003946FFF76EFF3B46324639462846FFF7D6
:102C40003FFF21462846FFF764FF434632462146B0
:102C50002846FFF735FF214628460122FFF741FFAE
:102C60003946BDE8F041FFF766BF002070470FB45A
:102C700007B504A951F8040B0191FDF749FF03B012
:102C80005DF804EB04B070477047012801D1EFF301
:102C90000583FEF7C5BF01460068FFF7F6BF08B51C
:102CA000FDF768FFBDE80840FDF788BF002101205F
:102CB000FFF7EBBF61B662B680F31188BFF36F8F89
:102CC000704772B6002383F31188BFF36F8FBFF391
:102CD0004F8F30BF62B6BFF36F8F704708B5FEF7F6
:102CE000C5F908B5FEF7AEF9002008BDFEF78ABFAA
:102CF00049B21029436816DC0A290BD00B2910D0E1
:102D00000C221B6802FB01334FF4006203F50053F1
:102D10001A6004E09B682D2203F540535A6000209E
:102D20007047DB68F7E76FF01500704749B210296C
:102D3000436816DC0A290BD00B2910D00C221B6823
:102D400002FB01334FF4006203F540531A6004E0C4
:102D50009B682D2203F500535A6000207047DB6802
:102D6000F7E76FF015007047CBB20246181F012835
:102D70002ED90B290BDC092919DC092B2AD840F2A2
:102D80004F3020FA03F313F0010009D170470C29EA
:102D900019D0A3F10D0001288CBF0020012070473D
:102DA00013680C2251435858C0F3C0207047D2E931
:102DB00002030A2908BF03465B6813F0290F0CBF02
:102DC00001200020704753685868C0F300307047F6
:102DD000012070470020704749B2102908B505DC72
:102DE0004068FFF7C1FF0130C0B208BDEA20FCE730
:102DF00049B2102910B5144606DCFEF7B9F9FDF703
:102E0000E5FC2060002010BD6FF01500FBE7F0B579
:102E100000254FF0FF362B468B421DD21A4600EBA1
:102E2000430494F90170B7420DD100EB430710F948
:102E300013C097F9017030F812E020F813E000F8A1
:102E400012C0013367700132914204F10204E8D1EB
:102E500010F915600135DFE7F0BD10EE18300020E5
:102E60000B6070470269136921EA030040EE10000D
:102E70001940536901EA030260EE142021EA0301BC
:102E800040EE1410002070470269136921EA030024
:102E900060EE10001940536901EA030240EE14206D
:102EA00021EA030160EE14100020704703691B69DA
:102EB00021EA030220EE10204FF050420B40002088
:102EC0009364704710B503695868F8B1884219D106
:102ED0009C680868A142586000D198600020086092
:102EE0002AB15A680A609A68596002B9996000204C
:102EF00010E0814206D10868206098688142EDD1D7
:102F00009C60EBE7044600680028F2D1002AE8D173
:102F10006FF0150010BD08B543685B689847002046
:102F200008BD2DE9F0410E4617460125D0F8108066
:102F300000220F2130461C46FEF734FEB7F5001F75
:102F400005FA06F508D1D8F80C3023EA0505C8F8CB
:102F50000C500020BDE8F081FA0104F08063C4F356
:102F600040610BD589000BB141F0080101223046C8
:102F7000FEF718FED8F80C301D43E8E7002BF5D01B
:102F800041F00201F2E708B5152000220721FDF704
:102F9000D1FFBDE808401520FDF7BEBF30B505697B
:102FA0002B6910EE104021EA03005440204020EE2F
:102FB000100019406C6910EE1400504001EA04033F
:102FC00023EA000320EE143010EE143021EA04014D
:102FD0005A40114020EE1410002030BD30B5036877
:102FE00013600579046804EBC504A34202D36FF0B3
:102FF000010030BD5C798C4201D00833F0E700203D
:10300000F7E770B5044600EB8105AC4201D1002022
:1030100070BD264616F8040B00F01F0000F07FFA82
:1030200021882078C1F3441100F01F00FEF754FD01
:10303000A2786178207802F00102C90900F01F002F
:10304000FEF766FD61782078C1F3830100F01F0070
:10305000FEF78CFD61782078C1F3801100F01F002D
:10306000FEF776FDA1782078C1F3800100F01F0003
:10307000FEF760FDA1782078C1F3400100F01F0049
:10308000FEF7B2FDA1782078C1F3C10100F01F0066
:1030900000F036FA3446B8E70020704783680079BC
:1030A000022808D0042809D0012809D1CB5CDBB262
:1030B000002013607047CB5A9BB2F9E7CB58F7E773
:1030C0006FF0150070472DE9F74347680D463E79CC
:1030D00090464FEAC609B1FBF9F4384601AAA1B2FD
:1030E000FFF7DCFFA0B9012309FB14557A79019998
:1030F000EDB2AB40424514BF19439943022EBB6861
:1031000009D0042E0BD0012E0CD1C9B2A4B2E154C7
:1031100003B0BDE8F08389B2A4B2E152F8E7A4B2EB
:10312000E150F5E76FF01500F2E70122FFF7CBBFA2
:103130000022FFF7C8BF38B504460D46FFF7F5FF7C
:1031400028B929462046BDE83840FFF7F1BF38BD11
:103150002DE9F34146680C4637791546FF00B1FB6F
:10316000F7F8304601AA1FFA88F1FFF797FF68B910
:1031700007FB1844019BE4B2E340DB43727903F0A0
:103180000103002A08BF83F001032B7002B0BDE8E1
:10319000F08102694368127A1B682AB91A6BD20758
:1031A0000DD51A6B92050AD59A69D20607D41B6809
:1031B0000B7043681B68586800F00F0070474FF0B1
:1031C000FF30704743681B689A699206FCD4196007
:1031D000704743681B6858685A68C0F3C0005107BD
:1031E0005A685B6848BF40F00800920748BF40F04B
:1031F0000200DB0748BF40F0040070470B4602693D
:1032000092E8030083E80300002070470346002093
:1032100030B55C682468A569AD0602D4151A002D86
:1032200000DC30BD0D5C01302560F2E70346002074
:1032300030B5141A002C04DD5C682468A569ED061D
:1032400000D530BD24680C540130F2E738B543682E
:1032500005691A680446936B43F0200393632B7C43
:103260001BB100232B746B6923B938BD2046D5E907
:103270000531984763681B689B6B9B06F6D4F4E79F
:10328000012203691A7443681A68936B23F02003C0
:103290009363704743681B68986980F00800C0F327
:1032A000C000704702694368127A1B681AB9186B2C
:1032B00010F480700BD0986B10F0200007D0DA6B00
:1032C000920603D49869C0F3C0107047012070477C
:1032D00043681A68936B43F05003936370474368E5
:1032E0001A68936B23F05003936370470269436835
:1032F000127A1B681AB9186B10F4007008D0986B1A
:1033000010F010001EBF986980F01000C0F300108C
:10331000704743681A68936B43F4F0639363704794
:1033200043681A68936B23F4F0639363704708B59E
:103330000146FFF7DBFF30B90846FFF7B3FF00385F
:1033400018BF012008BD0120FCE701207047036978
:10335000C3E905127047026953690BB191691847B7
:103360007047002070470020704708B521200022D8
:103370000721FDF7DFFDBDE808402120FDF7CCBDAA
:103380000122FEF739B9F7B5456804460669A86811
:1033900000285CD12869002862D1377A002F2FD10C
:1033A0003946686801AAFFF719FE002856DB019B21
:1033B0003A4619791868FFF724FE00284ED12B6A87
:1033C00003B1984763681A68136B23F00103136312
:1033D00063681A68D36A23F01003D362EB69002B89
:1033E0004CD1002231462046FEF706F910226368D0
:1033F0001B685A6363681A68D36A43F01003D36288
:10340000002263681B689A6340F2FF7263681B685E
:103410005A64337A93B9626812689364BFF36F8F0A
:1034200063681A68136B23F00203136363681A68F6
:10343000136B43F440731363BFF36F8FAB69204684
:10344000984701233374337AF3B1002006E0E9682A
:103450008368DB68FBB1984700289BD003B0F0BDC0
:10346000836869691B689847D5E90401836806F198
:103470000C02DB68002B90D098478EE72046F1685D
:1034800098470028ADD0E9E763681A68136B43F0EA
:1034900001031363D9E76FF05700DFE72DE9F74326
:1034A00090460A9A064693420F4601D2FFF716FC51
:1034B0004FEA13491C04204600234946FDF7ACF9A6
:1034C00000230546024649462046FDF7A5F9424637
:1034D0000346394630460095FEF73EFA012003B018
:1034E000BDE8F0830146042000F000B80C235843E7
:1034F000012300F1804000F58410416003607047B3
:10350000C00000F18040043000F520331B6800F556
:10351000243083EA813303F44043036070474FF063
:10352000000242EC440042EC40000521FEF7D4BA10
:10353000704740B1C368587810F001001EBF18787A
:10354000B0FA80F040097047EFF31183102383F342
:103550001288BFF36F8FFEE708B5FFF7F5FF10B5D0
:10356000D0E9003433B90020E268537843F0010316
:10357000537010BD204698470028F4D00028B8BFEB
:103580004042FF28A8BFFF20E3681870ECE700F076
:1035900097B800F088B87047102408B5EFF311838E
:1035A00084F31288BFF36F8FFFF78BFBF6E7D0E948
:1035B000003213605A600023C0E90033704708B539
:1035C000FFF7F5FF437B23F002034373002383607F
:1035D00008BD10B5EFF31184102383F31288BFF3F5
:1035E0006F8FFEF7A3FC84F31188BFF36F8F10BDBC
:1035F000014610B5EFF31184102383F31288BFF353
:103600006F8F437B13F0280F0AD183680BB1FFF74C
:10361000D6FF4B7B084623F004034B73FEF786FC72
:1036200084F31188BFF36F8F10BD01211838FFF7A5
:10363000DFBF10B5FEF7D6FE0446FEF7DBFE74B121
:10364000D4E904321B1A62EBE072B3F1004F72F15D
:10365000000104DA002AACBF1846002010BD6FF04C
:103660000040FBE7024638B5EFF31185102383F3E2
:103670001288BFF36F8F036893B1FEF7B3FE044661
:103680001046FEF7C1FE844204D1FFF7D2FF0021AD
:10369000FEF7C6F8002085F31188BFF36F8F38BDA1
:1036A0006FF01500F7E70A44431E914200D17047BE
:1036B00010B511F8014B914203F8014FF9D110BD3B
:1036C00002440346934200D1704703F8011BF9E717
:1036D0000246014410B58A42134603D01C780132D9
:1036E000002CF8D1181A10BDF0B5C3F13707044605
:1036F00003F01F031046FFB2082BE6B232D0102BA6
:103700003DD06508A40845EAC17544EA81748A0879
:103710002D1942EB5102290941EA02716D1842EB61
:103720001212290A41EA02616D1842EB1222290C99
:1037300041EA02416D1842EB1242AD1842F100021B
:10374000EC0844EA4274D10804EB8402A6EB42057B
:10375000EDB2092D0CD90134A5F10A0541F10001A2
:10376000EDB212E0E40806F0070544EA4174C90826
:10377000303554EA010200F8015BBDD1F0BD2409E7
:1037800006F00F0544EA01740909092D84BFED19FB
:10379000EDB2EDE70148006870470000F00100203D
:0837A000ACD0FF7F0100000026
:1037A80075120010E037001099300010F43700103F
:1037B80087330010083800104D1400100000000076
:1037C8008917001000000000891000100000000098
:0837D800172F00101C3800102F
:1037E000233C0010903A0010043A001064000020BE
:1037F000140000204B3C0010903B0010F4390010E6
:103800006800002000000000653C00103800002027
:10381000203A00106A0000201C0000203D3C0010EF
:10382000883B0010D0390010660000200402002000
:1038300000000000AD2C001000000000AD2C0010B6
:1038400000000000AD2C001000000000AD2C0010A6
:1038500000000000AD2C001000000000AD2C001096
:1038600000000000AD2C001000000000AD2C001086
:1038700000000000AD2C001000000000AD2C001076
:1038800000000000AD2C001000000000AD2C001066
:1038900000000000AD2C001000000000AD2C001056
:1038A00000000000AD2C001000000000AD2C001046
:1038B00000000000AD2C001000000000AD2C001036
:1038C00000000000AD2C001000000000AD2C001026
:1038D00000000000AD2C00101C3800108D150010E9
:1038E00000000000AD2C001000000000AD2C001006
:1038F00000000000AD2C001000000000AD2C0010F6
:1039000000000000AD2C001000000000AD2C0010E5
:1039100000000000AD2C001000000000AD2C0010D5
:1039200000000000AD2C001000000000AD2C0010C5
:1039300000000000AD2C00100838001057330010B4
:1039400000000000AD2C001000000000AD2C0010A5
:1039500000000000AD2C001000000000AD2C001095
:1039600000000000AD2C001000000000AD2C001085
:1039700000000000AD2C001000000000AD2C001075
:1039800000000000AD2C001000000000AD2C001065
:1039900000000000AD2C001000000000AD2C001055
:1039A00000000000AD2C001000000000AD2C001045
:1039B00000000000AD2C001000000000AD2C001035
:1039C00000000000AD2C001000000000AD2C001025
:1039D000CD1400105B2E00109D2F0010652E0010DE
:1039E000892E0010AD2E0010232F0010C52E0010C0
:0439F0009D14001012
:1039F400513100102B3100103131001037310010DB
:103A0400F12C00102D2D001000000000F12D0010ED
:0C3A1400D92D0010000000000000000090
:103A200093310010C5310010D331001081330010E4
:103A3000FD3100100D3200102D3200104D320010FB
:103A400081320010A5320010D1320010DF32001098
:103A500095320010ED3200101333001021330010A6
:0C3A60002F3300104B3300104F330010C8
:103A6C00000A010A020A030A070A040C050A0605E1
:103A7C00080B090B0A0C0B0C0CFF0DFF0E0D0FFFA6
:103A8C0010FF0000000001400080044000000540D1
:103A9C000080054000800E40803B001001000000BB
:103AAC007D00000005000000020000000100000085
:103ABC00640000000500000005000000000000008C
:103ACC000000000080D1F00880D1F0080000000058
:103ADC000000000080D1F00880D1F0080000000048
:103AEC000000000080D1F00880D1F0080000000038
:103AFC000000000080D1F00880D1F0080200000026
:103B0C0000000000001BB700001BB7000100000004
:103B1C000000000080D1F00880D1F0080000000007
:103B2C000000000080D1F00880D1F00800000000F7
:103B3C000100000080D1F00880D1F00800000000E6
:103B4C0000000000006CDC02006CDC0200000000D5
:103B5C0000000000006CDC02006CDC020C000000B9
:103B6C00A00A00001000000000000000000000008F
:103B7C0000000000883B001000000000FFFFFF3F2A
:103B8C00872F0010000002400400000000000240DB
:103B9C00A43B001001000000AC3B00100200000030
:103BAC004004000041040200A8370010A8370010A0
:103BBC00C8370010D0370010E0370010E037001085
:103BCC00557365207468652073656E736F7220740D
:103BDC006F206368616E6765204C454420626C6998
:103BEC006E6B696E6720706572696F640A00616242
:103BFC006F727428290A000B0A0E0C0F10050A0BA1
:103C0C000E0C0F100A0B0D0C0F100B0F100A0F10CF
:103C1C000B0E0C05080904636C6F636B2D636F6EE0
:103C2C0074726F6C6C6572403430303130303030BF
:103C3C00006770696F403430303238303030007289
:103C4C00657365742D636F6E74726F6C6C65724006
:103C5C003430303230303030007561727440343072
:103C6C00303730303030006D61696E002A2A2A20DE
:103C7C00426F6F74696E67205A6570687972204F55
:103C8C0053206275696C642076342E312E302D727F
:103C9C0063312D382D676666346463363266306561
:103CAC003532202A2A2A0A00286E756C6C29002AC3
:083CBC00666C6F61742A0000C0
:103CC4006B2C001000000000E32C0010000000002A
:103CD40000000000A02E6300A02E630000C20100BB
:103CE40000010300000000000000000000000000CC
:103CF4000000000000000000000007409C3B001092
:103D04000000000000000000E03700100600000082
:103D14006B33001067330010633300105C00002025
:043D24005C0000201F
:083D2800000000000000000093
:043D300015E015E0A5
:0400000510000E4594
:00000001FF
